{
  "_format": "hh-sol-artifact-1",
  "contractName": "TodoDapp",
  "sourceName": "contracts/Todo.sol",
  "abi": [
    {
      "constant": true,
      "inputs": [
        {
          "name": "_id",
          "type": "uint256"
        }
      ],
      "name": "showTodo",
      "outputs": [
        {
          "name": "",
          "type": "uint256"
        },
        {
          "name": "",
          "type": "string"
        },
        {
          "name": "",
          "type": "string"
        },
        {
          "name": "",
          "type": "string"
        },
        {
          "name": "",
          "type": "string"
        },
        {
          "name": "",
          "type": "string"
        },
        {
          "name": "",
          "type": "string"
        }
      ],
      "payable": false,
      "stateMutability": "view",
      "type": "function"
    },
    {
      "constant": false,
      "inputs": [
        {
          "name": "_id",
          "type": "uint256"
        },
        {
          "name": "_title",
          "type": "string"
        },
        {
          "name": "_description",
          "type": "string"
        },
        {
          "name": "_priority",
          "type": "string"
        },
        {
          "name": "_created_at",
          "type": "string"
        },
        {
          "name": "_updated_at",
          "type": "string"
        },
        {
          "name": "_status",
          "type": "string"
        }
      ],
      "name": "updateTodo",
      "outputs": [],
      "payable": false,
      "stateMutability": "nonpayable",
      "type": "function"
    },
    {
      "constant": false,
      "inputs": [
        {
          "name": "_title",
          "type": "string"
        },
        {
          "name": "_description",
          "type": "string"
        },
        {
          "name": "_priority",
          "type": "string"
        },
        {
          "name": "_created_at",
          "type": "string"
        },
        {
          "name": "_updated_at",
          "type": "string"
        },
        {
          "name": "_status",
          "type": "string"
        }
      ],
      "name": "createTodo",
      "outputs": [],
      "payable": false,
      "stateMutability": "nonpayable",
      "type": "function"
    },
    {
      "constant": false,
      "inputs": [
        {
          "name": "_id",
          "type": "uint256"
        }
      ],
      "name": "destroyTodo",
      "outputs": [],
      "payable": false,
      "stateMutability": "nonpayable",
      "type": "function"
    },
    {
      "constant": true,
      "inputs": [
        {
          "name": "",
          "type": "uint256"
        }
      ],
      "name": "todos",
      "outputs": [
        {
          "name": "id",
          "type": "uint256"
        },
        {
          "name": "title",
          "type": "string"
        },
        {
          "name": "description",
          "type": "string"
        },
        {
          "name": "priority",
          "type": "string"
        },
        {
          "name": "created_at",
          "type": "string"
        },
        {
          "name": "updated_at",
          "type": "string"
        },
        {
          "name": "status",
          "type": "string"
        }
      ],
      "payable": false,
      "stateMutability": "view",
      "type": "function"
    },
    {
      "constant": true,
      "inputs": [],
      "name": "newTodoId",
      "outputs": [
        {
          "name": "",
          "type": "uint256"
        }
      ],
      "payable": false,
      "stateMutability": "view",
      "type": "function"
    }
  ],
  "bytecode": "0x608060405234801561001057600080fd5b5061153b806100206000396000f3fe608060405234801561001057600080fd5b506004361061007f576000357c0100000000000000000000000000000000000000000000000000000000900480631fe04ce514610084578063384ef6cc146100ba57806379c2ccab146100d6578063aff24c03146100f2578063bc8bc2b41461010e578063e05c8e0714610144575b600080fd5b61009e600480360361009991908101906110b5565b610162565b6040516100b197969594939291906112f9565b60405180910390f35b6100d460048036036100cf91908101906110de565b61061d565b005b6100f060048036036100eb9190810190610f9c565b610772565b005b61010c600480360361010791908101906110b5565b6108aa565b005b610128600480360361012391908101906110b5565b61094e565b60405161013b9796959493929190611392565b60405180910390f35b61014c610d2f565b60405161015991906112de565b60405180910390f35b6000606080606080606080600061017889610d35565b905060008181548110151561018957fe5b9060005260206000209060070201600001546000828154811015156101aa57fe5b90600052602060002090600702016001016000838154811015156101ca57fe5b90600052602060002090600702016002016000848154811015156101ea57fe5b906000526020600020906007020160030160008581548110151561020a57fe5b906000526020600020906007020160040160008681548110151561022a57fe5b906000526020600020906007020160050160008781548110151561024a57fe5b9060005260206000209060070201600601858054600181600116156101000203166002900480601f0160208091040260200160405190810160405280929190818152602001828054600181600116156101000203166002900480156102f05780601f106102c5576101008083540402835291602001916102f0565b820191906000526020600020905b8154815290600101906020018083116102d357829003601f168201915b50505050509550848054600181600116156101000203166002900480601f01602080910402602001604051908101604052809291908181526020018280546001816001161561010002031660029004801561038c5780601f106103615761010080835404028352916020019161038c565b820191906000526020600020905b81548152906001019060200180831161036f57829003601f168201915b50505050509450838054600181600116156101000203166002900480601f0160208091040260200160405190810160405280929190818152602001828054600181600116156101000203166002900480156104285780601f106103fd57610100808354040283529160200191610428565b820191906000526020600020905b81548152906001019060200180831161040b57829003601f168201915b50505050509350828054600181600116156101000203166002900480601f0160208091040260200160405190810160405280929190818152602001828054600181600116156101000203166002900480156104c45780601f10610499576101008083540402835291602001916104c4565b820191906000526020600020905b8154815290600101906020018083116104a757829003601f168201915b50505050509250818054600181600116156101000203166002900480601f0160208091040260200160405190810160405280929190818152602001828054600181600116156101000203166002900480156105605780601f1061053557610100808354040283529160200191610560565b820191906000526020600020905b81548152906001019060200180831161054357829003601f168201915b50505050509150808054600181600116156101000203166002900480601f0160208091040260200160405190810160405280929190818152602001828054600181600116156101000203166002900480156105fc5780601f106105d1576101008083540402835291602001916105fc565b820191906000526020600020905b8154815290600101906020018083116105df57829003601f168201915b50505050509050975097509750975097509750975050919395979092949650565b600061062888610d35565b90508660008281548110151561063a57fe5b9060005260206000209060070201600101908051906020019061065e929190610dc5565b508560008281548110151561066f57fe5b90600052602060002090600702016002019080519060200190610693929190610dc5565b50846000828154811015156106a457fe5b906000526020600020906007020160030190805190602001906106c8929190610dc5565b50836000828154811015156106d957fe5b906000526020600020906007020160040190805190602001906106fd929190610dc5565b508260008281548110151561070e57fe5b90600052602060002090600702016005019080519060200190610732929190610dc5565b508160008281548110151561074357fe5b90600052602060002090600702016006019080519060200190610767929190610dc5565b505050505050505050565b600060e060405190810160405280600154815260200188815260200187815260200186815260200185815260200184815260200183815250908060018154018082558091505090600182039060005260206000209060070201600090919290919091506000820151816000015560208201518160010190805190602001906107fb929190610e45565b506040820151816002019080519060200190610818929190610e45565b506060820151816003019080519060200190610835929190610e45565b506080820151816004019080519060200190610852929190610e45565b5060a082015181600501908051906020019061086f929190610e45565b5060c082015181600601908051906020019061088c929190610e45565b50505050600160008154809291906001019190505550505050505050565b60008190506000818154811015156108be57fe5b90600052602060002090600702016000808201600090556001820160006108e59190610ec5565b6002820160006108f59190610ec5565b6003820160006109059190610ec5565b6004820160006109159190610ec5565b6005820160006109259190610ec5565b6006820160006109359190610ec5565b5050600160008154809291906001900391905055505050565b60008181548110151561095d57fe5b9060005260206000209060070201600091509050806000015490806001018054600181600116156101000203166002900480601f016020809104026020016040519081016040528092919081815260200182805460018160011615610100020316600290048015610a0f5780601f106109e457610100808354040283529160200191610a0f565b820191906000526020600020905b8154815290600101906020018083116109f257829003601f168201915b505050505090806002018054600181600116156101000203166002900480601f016020809104026020016040519081016040528092919081815260200182805460018160011615610100020316600290048015610aad5780601f10610a8257610100808354040283529160200191610aad565b820191906000526020600020905b815481529060010190602001808311610a9057829003601f168201915b505050505090806003018054600181600116156101000203166002900480601f016020809104026020016040519081016040528092919081815260200182805460018160011615610100020316600290048015610b4b5780601f10610b2057610100808354040283529160200191610b4b565b820191906000526020600020905b815481529060010190602001808311610b2e57829003601f168201915b505050505090806004018054600181600116156101000203166002900480601f016020809104026020016040519081016040528092919081815260200182805460018160011615610100020316600290048015610be95780601f10610bbe57610100808354040283529160200191610be9565b820191906000526020600020905b815481529060010190602001808311610bcc57829003601f168201915b505050505090806005018054600181600116156101000203166002900480601f016020809104026020016040519081016040528092919081815260200182805460018160011615610100020316600290048015610c875780601f10610c5c57610100808354040283529160200191610c87565b820191906000526020600020905b815481529060010190602001808311610c6a57829003601f168201915b505050505090806006018054600181600116156101000203166002900480601f016020809104026020016040519081016040528092919081815260200182805460018160011615610100020316600290048015610d255780601f10610cfa57610100808354040283529160200191610d25565b820191906000526020600020905b815481529060010190602001808311610d0857829003601f168201915b5050505050905087565b60015481565b6000806000905060008054905081111515610dbe5782600082815481101515610d5a57fe5b9060005260206000209060070201600001541415610d7b5780915050610dc0565b80806001019150506040517f08c379a0000000000000000000000000000000000000000000000000000000008152600401610db5906112be565b60405180910390fd5b505b919050565b828054600181600116156101000203166002900490600052602060002090601f016020900481019282601f10610e0657805160ff1916838001178555610e34565b82800160010185558215610e34579182015b82811115610e33578251825591602001919060010190610e18565b5b509050610e419190610f0d565b5090565b828054600181600116156101000203166002900490600052602060002090601f016020900481019282601f10610e8657805160ff1916838001178555610eb4565b82800160010185558215610eb4579182015b82811115610eb3578251825591602001919060010190610e98565b5b509050610ec19190610f0d565b5090565b50805460018160011615610100020316600290046000825580601f10610eeb5750610f0a565b601f016020900490600052602060002090810190610f099190610f0d565b5b50565b610f2f91905b80821115610f2b576000816000905550600101610f13565b5090565b90565b600082601f8301121515610f4557600080fd5b8135610f58610f5382611458565b61142b565b91508082526020830160208301858383011115610f7457600080fd5b610f7f8382846114ae565b50505092915050565b6000610f9482356114a4565b905092915050565b60008060008060008060c08789031215610fb557600080fd5b600087013567ffffffffffffffff811115610fcf57600080fd5b610fdb89828a01610f32565b965050602087013567ffffffffffffffff811115610ff857600080fd5b61100489828a01610f32565b955050604087013567ffffffffffffffff81111561102157600080fd5b61102d89828a01610f32565b945050606087013567ffffffffffffffff81111561104a57600080fd5b61105689828a01610f32565b935050608087013567ffffffffffffffff81111561107357600080fd5b61107f89828a01610f32565b92505060a087013567ffffffffffffffff81111561109c57600080fd5b6110a889828a01610f32565b9150509295509295509295565b6000602082840312156110c757600080fd5b60006110d584828501610f88565b91505092915050565b600080600080600080600060e0888a0312156110f957600080fd5b60006111078a828b01610f88565b975050602088013567ffffffffffffffff81111561112457600080fd5b6111308a828b01610f32565b965050604088013567ffffffffffffffff81111561114d57600080fd5b6111598a828b01610f32565b955050606088013567ffffffffffffffff81111561117657600080fd5b6111828a828b01610f32565b945050608088013567ffffffffffffffff81111561119f57600080fd5b6111ab8a828b01610f32565b93505060a088013567ffffffffffffffff8111156111c857600080fd5b6111d48a828b01610f32565b92505060c088013567ffffffffffffffff8111156111f157600080fd5b6111fd8a828b01610f32565b91505092959891949750929550565b60006112178261148f565b80845261122b8160208601602086016114bd565b611234816114f0565b602085010191505092915050565b600061124d82611484565b8084526112618160208601602086016114bd565b61126a816114f0565b602085010191505092915050565b6000600f82527f546f646f206e6f7420666f756e642100000000000000000000000000000000006020830152604082019050919050565b6112b88161149a565b82525050565b600060208201905081810360008301526112d781611278565b9050919050565b60006020820190506112f360008301846112af565b92915050565b600060e08201905061130e600083018a6112af565b8181036020830152611320818961120c565b90508181036040830152611334818861120c565b90508181036060830152611348818761120c565b9050818103608083015261135c818661120c565b905081810360a0830152611370818561120c565b905081810360c0830152611384818461120c565b905098975050505050505050565b600060e0820190506113a7600083018a6112af565b81810360208301526113b98189611242565b905081810360408301526113cd8188611242565b905081810360608301526113e18187611242565b905081810360808301526113f58186611242565b905081810360a08301526114098185611242565b905081810360c083015261141d8184611242565b905098975050505050505050565b6000604051905081810181811067ffffffffffffffff8211171561144e57600080fd5b8060405250919050565b600067ffffffffffffffff82111561146f57600080fd5b601f19601f8301169050602081019050919050565b600081519050919050565b600081519050919050565b6000819050919050565b6000819050919050565b82818337600083830152505050565b60005b838110156114db5780820151818401526020810190506114c0565b838111156114ea576000848401525b50505050565b6000601f19601f830116905091905056fea265627a7a7230582011341dbb5e72d9b40f98d07450cef385198775837c1e081e1459667f25afc7cd6c6578706572696d656e74616cf50037",
  "linkReferences": {},
  "deployedLinkReferences": {}
}